{
  "_format": "hh3-artifact-1",
  "contractName": "Meute",
  "sourceName": "contracts/Meute.sol",
  "abi": [
    {
      "inputs": [
        {
          "internalType": "address[]",
          "name": "fondateurs",
          "type": "address[]"
        },
        {
          "internalType": "uint256",
          "name": "montantCotisation",
          "type": "uint256"
        }
      ],
      "stateMutability": "nonpayable",
      "type": "constructor"
    },
    {
      "inputs": [],
      "name": "AucunFondateur",
      "type": "error"
    },
    {
      "inputs": [],
      "name": "CandidatureDejaOuverte",
      "type": "error"
    },
    {
      "inputs": [],
      "name": "ChoixInvalide",
      "type": "error"
    },
    {
      "inputs": [],
      "name": "CotisationIncorrecte",
      "type": "error"
    },
    {
      "inputs": [],
      "name": "DejaExecutee",
      "type": "error"
    },
    {
      "inputs": [],
      "name": "DejaMembre",
      "type": "error"
    },
    {
      "inputs": [],
      "name": "DejaVote",
      "type": "error"
    },
    {
      "inputs": [
        {
          "internalType": "address",
          "name": "sender",
          "type": "address"
        },
        {
          "internalType": "uint256",
          "name": "tokenId",
          "type": "uint256"
        },
        {
          "internalType": "address",
          "name": "owner",
          "type": "address"
        }
      ],
      "name": "ERC721IncorrectOwner",
      "type": "error"
    },
    {
      "inputs": [
        {
          "internalType": "address",
          "name": "operator",
          "type": "address"
        },
        {
          "internalType": "uint256",
          "name": "tokenId",
          "type": "uint256"
        }
      ],
      "name": "ERC721InsufficientApproval",
      "type": "error"
    },
    {
      "inputs": [
        {
          "internalType": "address",
          "name": "approver",
          "type": "address"
        }
      ],
      "name": "ERC721InvalidApprover",
      "type": "error"
    },
    {
      "inputs": [
        {
          "internalType": "address",
          "name": "operator",
          "type": "address"
        }
      ],
      "name": "ERC721InvalidOperator",
      "type": "error"
    },
    {
      "inputs": [
        {
          "internalType": "address",
          "name": "owner",
          "type": "address"
        }
      ],
      "name": "ERC721InvalidOwner",
      "type": "error"
    },
    {
      "inputs": [
        {
          "internalType": "address",
          "name": "receiver",
          "type": "address"
        }
      ],
      "name": "ERC721InvalidReceiver",
      "type": "error"
    },
    {
      "inputs": [
        {
          "internalType": "address",
          "name": "sender",
          "type": "address"
        }
      ],
      "name": "ERC721InvalidSender",
      "type": "error"
    },
    {
      "inputs": [
        {
          "internalType": "uint256",
          "name": "tokenId",
          "type": "uint256"
        }
      ],
      "name": "ERC721NonexistentToken",
      "type": "error"
    },
    {
      "inputs": [],
      "name": "FondsInsuffisants",
      "type": "error"
    },
    {
      "inputs": [],
      "name": "MontantInvalide",
      "type": "error"
    },
    {
      "inputs": [],
      "name": "PasCandidat",
      "type": "error"
    },
    {
      "inputs": [],
      "name": "PasLoup",
      "type": "error"
    },
    {
      "inputs": [],
      "name": "PasLouveteau",
      "type": "error"
    },
    {
      "inputs": [],
      "name": "PasMembre",
      "type": "error"
    },
    {
      "inputs": [],
      "name": "ProbationNonTerminee",
      "type": "error"
    },
    {
      "inputs": [],
      "name": "ProposalInconnue",
      "type": "error"
    },
    {
      "inputs": [],
      "name": "PseudoTropLong",
      "type": "error"
    },
    {
      "inputs": [],
      "name": "ReentrancyGuardReentrantCall",
      "type": "error"
    },
    {
      "inputs": [
        {
          "internalType": "uint256",
          "name": "value",
          "type": "uint256"
        },
        {
          "internalType": "uint256",
          "name": "length",
          "type": "uint256"
        }
      ],
      "name": "StringsInsufficientHexLength",
      "type": "error"
    },
    {
      "inputs": [],
      "name": "TitularisationDejaOuverte",
      "type": "error"
    },
    {
      "inputs": [],
      "name": "TransfertEchoue",
      "type": "error"
    },
    {
      "inputs": [],
      "name": "TransfertInterdit",
      "type": "error"
    },
    {
      "inputs": [],
      "name": "VoteEncoreOuvert",
      "type": "error"
    },
    {
      "inputs": [],
      "name": "VoteFerme",
      "type": "error"
    },
    {
      "anonymous": false,
      "inputs": [
        {
          "indexed": true,
          "internalType": "address",
          "name": "owner",
          "type": "address"
        },
        {
          "indexed": true,
          "internalType": "address",
          "name": "approved",
          "type": "address"
        },
        {
          "indexed": true,
          "internalType": "uint256",
          "name": "tokenId",
          "type": "uint256"
        }
      ],
      "name": "Approval",
      "type": "event"
    },
    {
      "anonymous": false,
      "inputs": [
        {
          "indexed": true,
          "internalType": "address",
          "name": "owner",
          "type": "address"
        },
        {
          "indexed": true,
          "internalType": "address",
          "name": "operator",
          "type": "address"
        },
        {
          "indexed": false,
          "internalType": "bool",
          "name": "approved",
          "type": "bool"
        }
      ],
      "name": "ApprovalForAll",
      "type": "event"
    },
    {
      "anonymous": false,
      "inputs": [
        {
          "indexed": true,
          "internalType": "address",
          "name": "membre",
          "type": "address"
        }
      ],
      "name": "MembreReveille",
      "type": "event"
    },
    {
      "anonymous": false,
      "inputs": [
        {
          "indexed": true,
          "internalType": "uint256",
          "name": "proposalId",
          "type": "uint256"
        }
      ],
      "name": "PropositionExecutee",
      "type": "event"
    },
    {
      "anonymous": false,
      "inputs": [
        {
          "indexed": true,
          "internalType": "uint256",
          "name": "proposalId",
          "type": "uint256"
        },
        {
          "indexed": true,
          "internalType": "address",
          "name": "cible",
          "type": "address"
        },
        {
          "indexed": true,
          "internalType": "address",
          "name": "auteur",
          "type": "address"
        },
        {
          "indexed": false,
          "internalType": "enum Meute.TypeProposition",
          "name": "typeProp",
          "type": "uint8"
        }
      ],
      "name": "PropositionOuverte",
      "type": "event"
    },
    {
      "anonymous": false,
      "inputs": [
        {
          "indexed": true,
          "internalType": "address",
          "name": "compte",
          "type": "address"
        },
        {
          "indexed": false,
          "internalType": "string",
          "name": "pseudo",
          "type": "string"
        }
      ],
      "name": "PseudoModifie",
      "type": "event"
    },
    {
      "anonymous": false,
      "inputs": [
        {
          "indexed": true,
          "internalType": "address",
          "name": "from",
          "type": "address"
        },
        {
          "indexed": true,
          "internalType": "address",
          "name": "to",
          "type": "address"
        },
        {
          "indexed": true,
          "internalType": "uint256",
          "name": "tokenId",
          "type": "uint256"
        }
      ],
      "name": "Transfer",
      "type": "event"
    },
    {
      "anonymous": false,
      "inputs": [
        {
          "indexed": true,
          "internalType": "uint256",
          "name": "proposalId",
          "type": "uint256"
        },
        {
          "indexed": true,
          "internalType": "address",
          "name": "votant",
          "type": "address"
        }
      ],
      "name": "VoteExprime",
      "type": "event"
    },
    {
      "inputs": [],
      "name": "AJOURNEMENTS_MAX",
      "outputs": [
        {
          "internalType": "uint8",
          "name": "",
          "type": "uint8"
        }
      ],
      "stateMutability": "view",
      "type": "function"
    },
    {
      "inputs": [],
      "name": "DELAI_DORMANCE",
      "outputs": [
        {
          "internalType": "uint256",
          "name": "",
          "type": "uint256"
        }
      ],
      "stateMutability": "view",
      "type": "function"
    },
    {
      "inputs": [],
      "name": "DUREE_PROBATION",
      "outputs": [
        {
          "internalType": "uint256",
          "name": "",
          "type": "uint256"
        }
      ],
      "stateMutability": "view",
      "type": "function"
    },
    {
      "inputs": [],
      "name": "DUREE_VOTE",
      "outputs": [
        {
          "internalType": "uint256",
          "name": "",
          "type": "uint256"
        }
      ],
      "stateMutability": "view",
      "type": "function"
    },
    {
      "inputs": [],
      "name": "VERSION",
      "outputs": [
        {
          "internalType": "string",
          "name": "",
          "type": "string"
        }
      ],
      "stateMutability": "view",
      "type": "function"
    },
    {
      "inputs": [
        {
          "internalType": "address",
          "name": "to",
          "type": "address"
        },
        {
          "internalType": "uint256",
          "name": "tokenId",
          "type": "uint256"
        }
      ],
      "name": "approve",
      "outputs": [],
      "stateMutability": "nonpayable",
      "type": "function"
    },
    {
      "inputs": [
        {
          "internalType": "address",
          "name": "owner",
          "type": "address"
        }
      ],
      "name": "balanceOf",
      "outputs": [
        {
          "internalType": "uint256",
          "name": "",
          "type": "uint256"
        }
      ],
      "stateMutability": "view",
      "type": "function"
    },
    {
      "inputs": [],
      "name": "candidater",
      "outputs": [],
      "stateMutability": "payable",
      "type": "function"
    },
    {
      "inputs": [
        {
          "internalType": "address",
          "name": "membre",
          "type": "address"
        }
      ],
      "name": "carte",
      "outputs": [
        {
          "components": [
            {
              "internalType": "enum Meute.Rang",
              "name": "rang",
              "type": "uint8"
            },
            {
              "internalType": "uint40",
              "name": "derniereActivite",
              "type": "uint40"
            },
            {
              "internalType": "uint8",
              "name": "ajournements",
              "type": "uint8"
            }
          ],
          "internalType": "struct Meute.Carte",
          "name": "",
          "type": "tuple"
        }
      ],
      "stateMutability": "view",
      "type": "function"
    },
    {
      "inputs": [],
      "name": "cotisation",
      "outputs": [
        {
          "internalType": "uint256",
          "name": "",
          "type": "uint256"
        }
      ],
      "stateMutability": "view",
      "type": "function"
    },
    {
      "inputs": [
        {
          "internalType": "string",
          "name": "nouveau",
          "type": "string"
        }
      ],
      "name": "definirPseudo",
      "outputs": [],
      "stateMutability": "nonpayable",
      "type": "function"
    },
    {
      "inputs": [],
      "name": "demissionner",
      "outputs": [],
      "stateMutability": "nonpayable",
      "type": "function"
    },
    {
      "inputs": [
        {
          "internalType": "address",
          "name": "membre",
          "type": "address"
        }
      ],
      "name": "estDormant",
      "outputs": [
        {
          "internalType": "bool",
          "name": "",
          "type": "bool"
        }
      ],
      "stateMutability": "view",
      "type": "function"
    },
    {
      "inputs": [
        {
          "internalType": "uint256",
          "name": "proposalId",
          "type": "uint256"
        }
      ],
      "name": "executer",
      "outputs": [],
      "stateMutability": "nonpayable",
      "type": "function"
    },
    {
      "inputs": [
        {
          "internalType": "uint256",
          "name": "tokenId",
          "type": "uint256"
        }
      ],
      "name": "getApproved",
      "outputs": [
        {
          "internalType": "address",
          "name": "",
          "type": "address"
        }
      ],
      "stateMutability": "view",
      "type": "function"
    },
    {
      "inputs": [
        {
          "internalType": "address",
          "name": "owner",
          "type": "address"
        },
        {
          "internalType": "address",
          "name": "operator",
          "type": "address"
        }
      ],
      "name": "isApprovedForAll",
      "outputs": [
        {
          "internalType": "bool",
          "name": "",
          "type": "bool"
        }
      ],
      "stateMutability": "view",
      "type": "function"
    },
    {
      "inputs": [],
      "name": "jeSuisLa",
      "outputs": [],
      "stateMutability": "nonpayable",
      "type": "function"
    },
    {
      "inputs": [],
      "name": "loupsActifs",
      "outputs": [
        {
          "internalType": "uint256",
          "name": "actifs",
          "type": "uint256"
        }
      ],
      "stateMutability": "view",
      "type": "function"
    },
    {
      "inputs": [],
      "name": "name",
      "outputs": [
        {
          "internalType": "string",
          "name": "",
          "type": "string"
        }
      ],
      "stateMutability": "view",
      "type": "function"
    },
    {
      "inputs": [
        {
          "internalType": "address",
          "name": "louveteau",
          "type": "address"
        }
      ],
      "name": "ouvrirTitularisation",
      "outputs": [],
      "stateMutability": "nonpayable",
      "type": "function"
    },
    {
      "inputs": [
        {
          "internalType": "uint256",
          "name": "tokenId",
          "type": "uint256"
        }
      ],
      "name": "ownerOf",
      "outputs": [
        {
          "internalType": "address",
          "name": "",
          "type": "address"
        }
      ],
      "stateMutability": "view",
      "type": "function"
    },
    {
      "inputs": [
        {
          "internalType": "address",
          "name": "beneficiaire",
          "type": "address"
        },
        {
          "internalType": "uint256",
          "name": "montant",
          "type": "uint256"
        },
        {
          "internalType": "string",
          "name": "motif",
          "type": "string"
        }
      ],
      "name": "proposerDepense",
      "outputs": [],
      "stateMutability": "nonpayable",
      "type": "function"
    },
    {
      "inputs": [
        {
          "internalType": "address",
          "name": "membre",
          "type": "address"
        }
      ],
      "name": "proposerExclusion",
      "outputs": [],
      "stateMutability": "nonpayable",
      "type": "function"
    },
    {
      "inputs": [
        {
          "internalType": "uint256",
          "name": "proposalId",
          "type": "uint256"
        }
      ],
      "name": "proposition",
      "outputs": [
        {
          "components": [
            {
              "internalType": "enum Meute.TypeProposition",
              "name": "typeProp",
              "type": "uint8"
            },
            {
              "internalType": "address",
              "name": "cible",
              "type": "address"
            },
            {
              "internalType": "uint64",
              "name": "echeance",
              "type": "uint64"
            },
            {
              "internalType": "uint32",
              "name": "snapshotActifs",
              "type": "uint32"
            },
            {
              "internalType": "bool",
              "name": "snapshotFige",
              "type": "bool"
            },
            {
              "internalType": "bool",
              "name": "executee",
              "type": "bool"
            },
            {
              "internalType": "uint32",
              "name": "votesApprouver",
              "type": "uint32"
            },
            {
              "internalType": "uint32",
              "name": "votesRejeter",
              "type": "uint32"
            },
            {
              "internalType": "uint32",
              "name": "votesAjourner",
              "type": "uint32"
            },
            {
              "internalType": "uint256",
              "name": "montant",
              "type": "uint256"
            },
            {
              "internalType": "string",
              "name": "motif",
              "type": "string"
            }
          ],
          "internalType": "struct Meute.Proposition",
          "name": "",
          "type": "tuple"
        }
      ],
      "stateMutability": "view",
      "type": "function"
    },
    {
      "inputs": [
        {
          "internalType": "address",
          "name": "compte",
          "type": "address"
        }
      ],
      "name": "pseudo",
      "outputs": [
        {
          "internalType": "string",
          "name": "",
          "type": "string"
        }
      ],
      "stateMutability": "view",
      "type": "function"
    },
    {
      "inputs": [
        {
          "internalType": "address",
          "name": "from",
          "type": "address"
        },
        {
          "internalType": "address",
          "name": "to",
          "type": "address"
        },
        {
          "internalType": "uint256",
          "name": "tokenId",
          "type": "uint256"
        }
      ],
      "name": "safeTransferFrom",
      "outputs": [],
      "stateMutability": "nonpayable",
      "type": "function"
    },
    {
      "inputs": [
        {
          "internalType": "address",
          "name": "from",
          "type": "address"
        },
        {
          "internalType": "address",
          "name": "to",
          "type": "address"
        },
        {
          "internalType": "uint256",
          "name": "tokenId",
          "type": "uint256"
        },
        {
          "internalType": "bytes",
          "name": "data",
          "type": "bytes"
        }
      ],
      "name": "safeTransferFrom",
      "outputs": [],
      "stateMutability": "nonpayable",
      "type": "function"
    },
    {
      "inputs": [
        {
          "internalType": "address",
          "name": "operator",
          "type": "address"
        },
        {
          "internalType": "bool",
          "name": "approved",
          "type": "bool"
        }
      ],
      "name": "setApprovalForAll",
      "outputs": [],
      "stateMutability": "nonpayable",
      "type": "function"
    },
    {
      "inputs": [
        {
          "internalType": "bytes4",
          "name": "interfaceId",
          "type": "bytes4"
        }
      ],
      "name": "supportsInterface",
      "outputs": [
        {
          "internalType": "bool",
          "name": "",
          "type": "bool"
        }
      ],
      "stateMutability": "view",
      "type": "function"
    },
    {
      "inputs": [],
      "name": "symbol",
      "outputs": [
        {
          "internalType": "string",
          "name": "",
          "type": "string"
        }
      ],
      "stateMutability": "view",
      "type": "function"
    },
    {
      "inputs": [
        {
          "internalType": "uint256",
          "name": "tokenId",
          "type": "uint256"
        }
      ],
      "name": "tokenURI",
      "outputs": [
        {
          "internalType": "string",
          "name": "",
          "type": "string"
        }
      ],
      "stateMutability": "view",
      "type": "function"
    },
    {
      "inputs": [
        {
          "internalType": "address",
          "name": "from",
          "type": "address"
        },
        {
          "internalType": "address",
          "name": "to",
          "type": "address"
        },
        {
          "internalType": "uint256",
          "name": "tokenId",
          "type": "uint256"
        }
      ],
      "name": "transferFrom",
      "outputs": [],
      "stateMutability": "nonpayable",
      "type": "function"
    },
    {
      "inputs": [
        {
          "internalType": "uint256",
          "name": "proposalId",
          "type": "uint256"
        },
        {
          "internalType": "enum Meute.ChoixVote",
          "name": "choix",
          "type": "uint8"
        }
      ],
      "name": "voter",
      "outputs": [],
      "stateMutability": "nonpayable",
      "type": "function"
    }
  ],
  "bytecode": "0x60a060405234801561000f575f5ffd5b5060405161412c38038061412c83398101604081905261002e916106dd565b6040518060400160405280600e81526020016d4361727465206465204d6575746560901b815250604051806040016040528060058152602001644d4555544560d81b815250815f90816100819190610834565b50600161008e8282610834565b50505060016100a76100a461013360201b60201c565b90565b5581515f036100c95760405163c572920160e01b815260040160405180910390fd5b805f036100e95760405163a3914bc760e01b815260040160405180910390fd5b60808190525f5b825181101561012b5761012383828151811061010e5761010e6108ee565b6020026020010151600161015760201b60201c565b6001016100f0565b505050610916565b7f9b779b17422d0df92223018b32b4d1fa46e071723d6817e2486d003becc55f0090565b604051806060016040528082600181111561017457610174610902565b815264ffffffffff42166020808301919091525f60409283018190526001600160a01b038616815260069091522081518154829060ff1916600183818111156101bf576101bf610902565b02179055506020820151815460409093015160ff1666010000000000000260ff60301b1964ffffffffff909216610100029190911666ffffffffffff001990931692909217919091179055600181600181111561021e5761021e610902565b036102305761022e600783610247565b505b610243826001600160a01b038116610264565b5050565b5f61025b836001600160a01b0384166102cf565b90505b92915050565b6001600160a01b03821661029257604051633250574960e11b81525f60048201526024015b60405180910390fd5b5f61029e83838361031b565b90506001600160a01b038116156102ca576040516339e3563760e11b81525f6004820152602401610289565b505050565b5f81815260018301602052604081205461031457508154600181810184555f84815260208082209093018490558454848252828601909352604090209190915561025e565b505f61025e565b5f828152600260205260408120546001600160a01b0316801580159061034957506001600160a01b03851615155b156103675760405163da6c1a6f60e01b815260040160405180910390fd5b61037285858561037b565b95945050505050565b5f828152600260205260408120546001600160a01b03908116908316156103a7576103a781848661046d565b6001600160a01b038116156103e1576103c25f8581806104d1565b6001600160a01b0381165f90815260036020526040902080545f190190555b6001600160a01b0385161561040f576001600160a01b0385165f908152600360205260409020805460010190555b5f8481526002602052604080822080546001600160a01b0319166001600160a01b0389811691821790925591518793918516917fddf252ad1be2c89b69c2b068fc378daa952ba7f163c4a11628f55a4df523b3ef91a4949350505050565b6104788383836105f3565b6102ca576001600160a01b0383166104a657604051637e27328960e01b815260048101829052602401610289565b60405163177e802f60e01b81526001600160a01b038316600482015260248101829052604401610289565b80806104e557506001600160a01b03821615155b156105c4575f6104f484610676565b90506001600160a01b038316158015906105205750826001600160a01b0316816001600160a01b031614155b801561055157506001600160a01b038082165f9081526005602090815260408083209387168352929052205460ff16155b1561057a5760405163a9fbf51f60e01b81526001600160a01b0384166004820152602401610289565b81156105c25783856001600160a01b0316826001600160a01b03167f8c5be1e5ebec7d5bd14f71427d1e84f3dd0314c0f7b2291e5b200ac8c7c3b92560405160405180910390a45b505b50505f90815260046020526040902080546001600160a01b0319166001600160a01b0392909216919091179055565b5f6001600160a01b0383161580159061066e5750826001600160a01b0316846001600160a01b0316148061064b57506001600160a01b038085165f9081526005602090815260408083209387168352929052205460ff165b8061066e57505f828152600460205260409020546001600160a01b038481169116145b949350505050565b5f818152600260205260408120546001600160a01b03168061025e57604051637e27328960e01b815260048101849052602401610289565b634e487b7160e01b5f52604160045260245ffd5b80516001600160a01b03811681146106d8575f5ffd5b919050565b5f5f604083850312156106ee575f5ffd5b82516001600160401b03811115610703575f5ffd5b8301601f81018513610713575f5ffd5b80516001600160401b0381111561072c5761072c6106ae565b604051600582901b90603f8201601f191681016001600160401b038111828210171561075a5761075a6106ae565b604052918252602081840181019290810188841115610777575f5ffd5b6020850194505b8385101561079d5761078f856106c2565b81526020948501940161077e565b506020969096015195979596505050505050565b600181811c908216806107c557607f821691505b6020821081036107e357634e487b7160e01b5f52602260045260245ffd5b50919050565b601f8211156102ca57805f5260205f20601f840160051c8101602085101561080e5750805b601f840160051c820191505b8181101561082d575f815560010161081a565b5050505050565b81516001600160401b0381111561084d5761084d6106ae565b6108618161085b84546107b1565b846107e9565b6020601f821160018114610893575f831561087c5750848201515b5f19600385901b1c1916600184901b17845561082d565b5f84815260208120601f198516915b828110156108c257878501518255602094850194600190920191016108a2565b50848210156108df57868401515f19600387901b60f8161c191681555b50505050600190811b01905550565b634e487b7160e01b5f52603260045260245ffd5b634e487b7160e01b5f52602160045260245ffd5b6080516137f061093c5f395f8181610520015281816111ef015261245001526137f05ff3fe6080604052600436106101e6575f3560e01c80637052492711610108578063a71445861161009d578063b88d4fde1161006d578063b88d4fde1461056e578063c87b56dd1461058d578063e6207c48146105ac578063e985e9c5146105c2578063ffa1ad74146105e1575f5ffd5b8063a7144586146104d5578063a90f655c146104e9578063a92375761461050f578063b4c4197114610542575f5ffd5b8063891ea608116100d8578063891ea6081461047b57806395d89b411461049a578063a22cb465146104ae578063a67a9116146104cd575f5ffd5b8063705249271461040857806370a08231146104275780637d2700e6146104465780637e6d2a4f14610465575f5ffd5b806342842e0e1161017e5780636352211e1161014e5780636352211e14610397578063653871a9146103b6578063665f48b0146103d55780636aa198e2146103f4575f5ffd5b806342842e0e1461031557806345c857ab146103345780634a35248e146103535780634fb23fb214610378575f5ffd5b806315f8baf7116101b957806315f8baf71461029757806323b872dd146102c3578063261365a4146102e2578063369b6b7c146102f6575f5ffd5b806301ffc9a7146101ea57806306fdde031461021e578063081812fc1461023f578063095ea7b314610276575b5f5ffd5b3480156101f5575f5ffd5b50610209610204366004612a40565b610611565b60405190151581526020015b60405180910390f35b348015610229575f5ffd5b50610232610662565b6040516102159190612a89565b34801561024a575f5ffd5b5061025e610259366004612a9b565b6106f1565b6040516001600160a01b039091168152602001610215565b348015610281575f5ffd5b50610295610290366004612acd565b610718565b005b3480156102a2575f5ffd5b506102b66102b1366004612af5565b610727565b6040516102159190612b22565b3480156102ce575f5ffd5b506102956102dd366004612b61565b6107b9565b3480156102ed575f5ffd5b50610295610847565b348015610301575f5ffd5b50610295610310366004612bdf565b610895565b348015610320575f5ffd5b5061029561032f366004612b61565b610918565b34801561033f575f5ffd5b5061029561034e366004612af5565b610937565b34801561035e575f5ffd5b5061036a6301e1338081565b604051908152602001610215565b348015610383575f5ffd5b50610295610392366004612c1d565b610aa3565b3480156103a2575f5ffd5b5061025e6103b1366004612a9b565b610d97565b3480156103c1575f5ffd5b506102326103d0366004612af5565b610da1565b3480156103e0575f5ffd5b506102956103ef366004612c4e565b610e38565b3480156103ff575f5ffd5b5061036a610ee4565b348015610413575f5ffd5b50610295610422366004612af5565b610f29565b348015610432575f5ffd5b5061036a610441366004612af5565b610fad565b348015610451575f5ffd5b50610295610460366004612a9b565b610ff2565b348015610470575f5ffd5b5061036a62093a8081565b348015610486575f5ffd5b50610209610495366004612af5565b611175565b3480156104a5575f5ffd5b506102326111d3565b3480156104b9575f5ffd5b506102956104c8366004612ca3565b6111e2565b6102956111ed565b3480156104e0575f5ffd5b506102956112b5565b3480156104f4575f5ffd5b506104fd600281565b60405160ff9091168152602001610215565b34801561051a575f5ffd5b5061036a7f000000000000000000000000000000000000000000000000000000000000000081565b34801561054d575f5ffd5b5061056161055c366004612a9b565b6112fa565b6040516102159190612ce5565b348015610579575f5ffd5b50610295610588366004612dca565b6114c5565b348015610598575f5ffd5b506102326105a7366004612a9b565b6114dd565b3480156105b7575f5ffd5b5061036a6276a70081565b3480156105cd575f5ffd5b506102096105dc366004612ea4565b6115e6565b3480156105ec575f5ffd5b50610232604051806040016040528060058152602001640302e322e360dc1b81525081565b5f6001600160e01b031982166380ac58cd60e01b148061064157506001600160e01b03198216635b5e139f60e01b145b8061065c57506301ffc9a760e01b6001600160e01b03198316145b92915050565b60605f805461067090612ed5565b80601f016020809104026020016040519081016040528092919081815260200182805461069c90612ed5565b80156106e75780601f106106be576101008083540402835291602001916106e7565b820191905f5260205f20905b8154815290600101906020018083116106ca57829003601f168201915b5050505050905090565b5f6106fb82611613565b505f828152600460205260409020546001600160a01b031661065c565b61072382823361164b565b5050565b604080516060810182525f80825260208201819052918101919091526001600160a01b0382165f90815260066020526040908190208151606081019092528054829060ff16600181111561077d5761077d612b0e565b600181111561078e5761078e612b0e565b81529054610100810464ffffffffff166020830152600160301b900460ff1660409091015292915050565b6001600160a01b0382166107e757604051633250574960e11b81525f60048201526024015b60405180910390fd5b5f6107f3838333611658565b9050836001600160a01b0316816001600160a01b031614610841576040516364283d7b60e01b81526001600160a01b03808616600483015260248201849052821660448201526064016107de565b50505050565b6001335f9081526006602052604090205460ff16600181111561086c5761086c612b0e565b1461088a57604051634ad131a560e11b815260040160405180910390fd5b610893336116b8565b565b60208111156108b757604051634cac93f960e11b815260040160405180910390fd5b335f908152600e602052604090206108d0828483612f51565b50336001600160a01b03167f19e122bd518cb4aeca4ae08d73aabc728896689c345f4c8ffa5322e930f56690838360405161090c92919061300a565b60405180910390a25050565b61093283838360405180602001604052805f8152506114c5565b505050565b6001335f9081526006602052604090205460ff16600181111561095c5761095c612b0e565b1461097a57604051634ad131a560e11b815260040160405180910390fd5b6109838161172c565b15806109b957506001600160a01b0381165f9081526006602052604081205460ff1660018111156109b6576109b6612b0e565b14155b156109d757604051631700fcb560e11b815260040160405180910390fd5b6001600160a01b0381165f90815260066020526040902054610a09906276a70090610100900464ffffffffff1661304c565b421015610a2957604051630bf1bf7760e11b815260040160405180910390fd5b6001600160a01b0381165f908152600c602052604090205460ff1615610a62576040516317bf241960e31b815260040160405180910390fd5b6001600160a01b0381165f908152600c60209081526040808320805460ff191660019081179091558151928301909152828252610723929091849190611754565b600d548210610ac55760405163a17c54ab60e01b815260040160405180910390fd5b5f8281526009602052604090208054600160a81b90046001600160401b03164210610b0357604051630e2c326160e21b815260040160405180910390fd5b6001335f9081526006602052604090205460ff166001811115610b2857610b28612b0e565b14610b4657604051634ad131a560e11b815260040160405180910390fd5b5f838152600a6020908152604080832033845290915290205460ff1615610b8057604051635c0dfd0b60e11b815260040160405180910390fd5b6002826002811115610b9457610b94612b0e565b03610c19576001815460ff166003811115610bb157610bb1612b0e565b14610bcf5760405163b8b2e0fd60e01b815260040160405180910390fd5b80546001600160a01b03610100909104165f908152600660205260409020546002600160301b90910460ff1610610c195760405163b8b2e0fd60e01b815260040160405180910390fd5b6001810154640100000000900460ff1615610c3c57610c37336116b8565b610c72565b610c45336116b8565b610c4d610ee4565b60018201805464ffffffffff191663ffffffff92909216919091176401000000001790555b5f838152600a602090815260408083203384529091528120805460ff19166001179055826002811115610ca757610ca7612b0e565b03610cef57600181018054600160301b900463ffffffff16906006610ccb8361305f565b91906101000a81548163ffffffff021916908363ffffffff16021790555050610d66565b6001826002811115610d0357610d03612b0e565b03610d2757600181018054600160501b900463ffffffff1690600a610ccb8361305f565b600181018054600160701b900463ffffffff1690600e610d468361305f565b91906101000a81548163ffffffff021916908363ffffffff160217905550505b604051339084907f6d9b65187373076310ea808b9912f1f185831a677b69a214e4e7624d790c59c5905f90a3505050565b5f61065c82611613565b600e6020525f908152604090208054610db990612ed5565b80601f0160208091040260200160405190810160405280929190818152602001828054610de590612ed5565b8015610e305780601f10610e0757610100808354040283529160200191610e30565b820191905f5260205f20905b815481529060010190602001808311610e1357829003601f168201915b505050505081565b6001335f9081526006602052604090205460ff166001811115610e5d57610e5d612b0e565b14610e7b57604051634ad131a560e11b815260040160405180910390fd5b825f03610e9b5760405163a3914bc760e01b815260040160405180910390fd5b610edd6003858585858080601f0160208091040260200160405190810160405280939291908181526020018383808284375f9201919091525061175492505050565b5050505050565b5f5f610ef060076119c5565b90505f5b81811015610f2457610f0a6104956007836119ce565b610f1c5782610f1881613083565b9350505b600101610ef4565b505090565b6001335f9081526006602052604090205460ff166001811115610f4e57610f4e612b0e565b14610f6c57604051634ad131a560e11b815260040160405180910390fd5b610f758161172c565b610f925760405163f542241b60e01b815260040160405180910390fd5b6107236002825f60405180602001604052805f815250611754565b5f6001600160a01b038216610fd7576040516322718ad960e21b81525f60048201526024016107de565b506001600160a01b03165f9081526003602052604090205490565b610ffa6119d9565b600d54811061101c5760405163a17c54ab60e01b815260040160405180910390fd5b5f8181526009602052604090206001810154600160281b900460ff16156110565760405163191fec3d60e11b815260040160405180910390fd5b8054600160a81b90046001600160401b0316421015611088576040516304ca403b60e51b815260040160405180910390fd5b60018101805465ff00000000001916600160281b1790555f815460ff1660038111156110b6576110b6612b0e565b036110c9576110c481611a07565b61111e565b6001815460ff1660038111156110e1576110e1612b0e565b036110ef576110c481611a4d565b6002815460ff16600381111561110757611107612b0e565b03611115576110c481611cc6565b61111e81611d0d565b60405182907fd53bf724dab4dfc10d27164863360a9c57e8e1af944704daf90f96454b12a472905f90a25061117260017f9b779b17422d0df92223018b32b4d1fa46e071723d6817e2486d003becc55f0055565b50565b6001600160a01b0381165f9081526006602052604081206001815460ff1660018111156111a4576111a4612b0e565b1480156111cc575080546301e13380906111ca90610100900464ffffffffff164261309b565b115b9392505050565b60606001805461067090612ed5565b610723338383611dbe565b7f0000000000000000000000000000000000000000000000000000000000000000341461122c5760405162d3403360e21b815260040160405180910390fd5b6112353361172c565b156112535760405163ec657ad160e01b815260040160405180910390fd5b335f908152600b602052604090205460ff161561128357604051634835f2b160e01b815260040160405180910390fd5b335f818152600b60209081526040808320805460ff191660011790558051918201905281815261117292908290611754565b6112be3361172c565b6112db5760405163f542241b60e01b815260040160405180910390fd5b335f818152600c60205260409020805460ff1916905561089390611e85565b6040805161016080820183525f808352602080840182905283850182905260608085018390526080850183905260a0850183905260c0850183905260e0850183905261010085018390526101208501839052610140850152858252600990528390208351918201909352825491929091829060ff16600381111561138057611380612b0e565b600381111561139157611391612b0e565b815281546101008082046001600160a01b03166020840152600160a81b9091046001600160401b03166040830152600183015463ffffffff8082166060850152640100000000820460ff90811615156080860152600160281b830416151560a0850152600160301b8204811660c0850152600160501b8204811660e0850152600160701b909104169082015260028201546101208201526003820180546101409092019161143e90612ed5565b80601f016020809104026020016040519081016040528092919081815260200182805461146a90612ed5565b80156114b55780601f1061148c576101008083540402835291602001916114b5565b820191905f5260205f20905b81548152906001019060200180831161149857829003601f168201915b5050505050815250509050919050565b6114d08484846107b9565b6108413385858585611ef3565b60606114e882611613565b506001600160a01b0382165f90815260066020526040812054839160ff90911690600182600181111561151d5761151d612b0e565b1461154957604051806040016040528060098152602001684c6f7576657465617560b81b815250611567565b6040518060400160405280600481526020016304c6f75760e41b8152505b90505f8161157d856001600160a01b031661201a565b8361158f61158a87612030565b6120bc565b6040516020016115a294939291906130c5565b60405160208183030381529060405290506115bc816120bc565b6040516020016115cc9190613203565b604051602081830303815290604052945050505050919050565b6001600160a01b039182165f90815260056020908152604080832093909416825291909152205460ff1690565b5f818152600260205260408120546001600160a01b03168061065c57604051637e27328960e01b8152600481018490526024016107de565b61093283838360016120c8565b5f828152600260205260408120546001600160a01b0316801580159061168657506001600160a01b03851615155b156116a45760405163da6c1a6f60e01b815260040160405180910390fd5b6116af8585856121cc565b95945050505050565b6116c181611175565b156116fa576040516001600160a01b038216907f4ff3e7f2d3ff8330835968ad858ac10d192c446bf582cc3a93817a9530749854905f90a25b6001600160a01b03165f908152600660205260409020805465ffffffffff0019166101004264ffffffffff1602179055565b6001600160a01b03165f90815260066020526040902054610100900464ffffffffff16151590565b600d80545f918261176483613083565b9190505590505f611773610ee4565b90505f815f1415905060405180610160016040528088600381111561179a5761179a612b0e565b81526001600160a01b03881660208201526040016117bb62093a804261304c565b6001600160401b03168152602001826117d4575f6117d6565b835b63ffffffff1681528215156020808301919091525f6040808401829052606084018290526080840182905260a0840182905260c084018a905260e090930188905286815260099091522081518154829060ff1916600183600381111561183e5761183e612b0e565b0217905550602082015181546040840151610100600160e81b03199091166101006001600160a01b03909316830267ffffffffffffffff60a81b191617600160a81b6001600160401b03909216919091021782556060830151600183018054608086015160a087015160c088015160e08901519689015163ffffffff96871664ffffffffff1990951694909417640100000000931515939093029290921769ffffffffff00000000001916600160281b9115159190910269ffffffff000000000000191617600160301b918516919091021767ffffffffffffffff60501b1916600160501b9484169490940263ffffffff60701b191693909317600160701b92909316919091029190911790556101208201516002820155610140820151600382019061196b9082613234565b50905050336001600160a01b0316866001600160a01b0316847f33a802e0f812812a2f4bdc5722218ff597250517b32fb43c82789021ef97aeba8a6040516119b391906132ee565b60405180910390a45050949350505050565b5f61065c825490565b5f6111cc83836122be565b6119e16122e4565b60027f9b779b17422d0df92223018b32b4d1fa46e071723d6817e2486d003becc55f0055565b805461010090046001600160a01b03165f818152600b60205260409020805460ff19169055611a3582612326565b15611a4457610723815f612357565b61072381612443565b80546001600160a01b036101009182900481165f908152600c60205260409020805460ff191690558254611a839290041661172c565b611a8a5750565b60018101545f9063ffffffff600160701b8204811691611abb91600160501b8204811691600160301b9004166132fc565b611ac591906132fc565b60018301549091505f9063ffffffff16611ae0836002613318565b63ffffffff1611905060028115611b8a57600184015463ffffffff600160501b82048116600160301b90920416118015611b335750600184015463ffffffff600160701b82048116600160301b90920416115b15611b3f57505f611b8a565b600184015463ffffffff600160301b82048116600160501b90920416118015611b815750600184015463ffffffff600160701b82048116600160501b90920416115b15611b8a575060015b5f816002811115611b9d57611b9d612b0e565b03611c0a5783546001600160a01b036101009182900481165f90815260066020526040808220805460ff191660011790558754849004831682529020805464ffffffffff4216840265ffffffffff00199091161790558554611c0492600792910416612477565b50610841565b6001816002811115611c1e57611c1e612b0e565b03611c41578354611c3c9061010090046001600160a01b0316611e85565b610841565b83546001600160a01b03610100909104165f90815260066020526040902080546002600160301b90910460ff161015611ca6578054600160301b900460ff16816006611c8c83613337565b91906101000a81548160ff021916908360ff160217905550505b805465ffffffffff0019166101004264ffffffffff160217905550505050565b8054611cdf9061010090046001600160a01b031661172c565b611ce65750565b611cef81612326565b156111725780546111729061010090046001600160a01b0316611e85565b611d1681612326565b15611172578060020154471015611d4057604051631296965f60e01b815260040160405180910390fd5b805460028201546040515f9261010090046001600160a01b031691905b5f6040518083038185875af1925050503d805f8114611d97576040519150601f19603f3d011682016040523d82523d5f602084013e611d9c565b606091505b50509050806107235760405163b78e319760e01b815260040160405180910390fd5b6001600160a01b038316611de75760405163a9fbf51f60e01b81525f60048201526024016107de565b6001600160a01b038216611e1957604051630b61174360e31b81526001600160a01b03831660048201526024016107de565b6001600160a01b038381165f81815260056020908152604080832094871680845294825291829020805460ff191686151590811790915591519182527f17307eab39ab6107e8899845ad3d59bd9653f200f220920489ca2b5937696c31910160405180910390a3505050565b60016001600160a01b0382165f9081526006602052604090205460ff166001811115611eb357611eb3612b0e565b03611ec557611ec360078261248b565b505b6001600160a01b0381165f818152600660205260409020805466ffffffffffffff191690556107238161249f565b6001600160a01b0383163b15610edd57604051630a85bd0160e11b81526001600160a01b0384169063150b7a0290611f3590889088908790879060040161334c565b6020604051808303815f875af1925050508015611f6f575060408051601f3d908101601f19168201909252611f6c91810190613388565b60015b611fd6573d808015611f9c576040519150601f19603f3d011682016040523d82523d5f602084013e611fa1565b606091505b5080515f03611fce57604051633250574960e11b81526001600160a01b03851660048201526024016107de565b805160208201fd5b6001600160e01b03198116630a85bd0160e11b1461201257604051633250574960e11b81526001600160a01b03851660048201526024016107de565b505050505050565b606061065c6001600160a01b03831660146124d7565b60605f600183600181111561204757612047612b0e565b1461206a5760405180608001604052806046815260200161377560469139612092565b6040518060400160405280600e81526020016d3334b6361e9111989b189998989160911b8152505b9050806040516020016120a591906133a3565b604051602081830303815290604052915050919050565b606061065c825f612650565b80806120dc57506001600160a01b03821615155b1561219d575f6120eb84611613565b90506001600160a01b038316158015906121175750826001600160a01b0316816001600160a01b031614155b801561212a575061212881846115e6565b155b156121535760405163a9fbf51f60e01b81526001600160a01b03841660048201526024016107de565b811561219b5783856001600160a01b0316826001600160a01b03167f8c5be1e5ebec7d5bd14f71427d1e84f3dd0314c0f7b2291e5b200ac8c7c3b92560405160405180910390a45b505b50505f90815260046020526040902080546001600160a01b0319166001600160a01b0392909216919091179055565b5f828152600260205260408120546001600160a01b03908116908316156121f8576121f88184866127cf565b6001600160a01b03811615612232576122135f855f5f6120c8565b6001600160a01b0381165f90815260036020526040902080545f190190555b6001600160a01b03851615612260576001600160a01b0385165f908152600360205260409020805460010190555b5f8481526002602052604080822080546001600160a01b0319166001600160a01b0389811691821790925591518793918516917fddf252ad1be2c89b69c2b068fc378daa952ba7f163c4a11628f55a4df523b3ef91a4949350505050565b5f825f0182815481106122d3576122d3613701565b905f5260205f200154905092915050565b7f9b779b17422d0df92223018b32b4d1fa46e071723d6817e2486d003becc55f005460020361089357604051633ee5aeb560e01b815260040160405180910390fd5b60018101545f9063ffffffff8082169161234a91600160301b909104166002613318565b63ffffffff161192915050565b604051806060016040528082600181111561237457612374612b0e565b815264ffffffffff42166020808301919091525f60409283018190526001600160a01b038616815260069091522081518154829060ff1916600183818111156123bf576123bf612b0e565b02179055506020820151815460409093015160ff16600160301b0266ff0000000000001964ffffffffff909216610100029190911666ffffffffffff001990931692909217919091179055600181600181111561241e5761241e612b0e565b036124305761242e600783612477565b505b610723826001600160a01b038116612833565b5f816001600160a01b03167f0000000000000000000000000000000000000000000000000000000000000000604051611d5d565b5f6111cc836001600160a01b038416612894565b5f6111cc836001600160a01b0384166128e0565b5f6124ab5f835f611658565b90506001600160a01b03811661072357604051637e27328960e01b8152600481018390526024016107de565b6060825f6124e6846002613715565b6124f190600261304c565b6001600160401b0381111561250857612508612db6565b6040519080825280601f01601f191660200182016040528015612532576020820181803683370190505b509050600360fc1b815f8151811061254c5761254c613701565b60200101906001600160f81b03191690815f1a905350600f60fb1b8160018151811061257a5761257a613701565b60200101906001600160f81b03191690815f1a9053505f61259c856002613715565b6125a790600161304c565b90505b600181111561261e576f181899199a1a9b1b9c1cb0b131b232b360811b83600f16601081106125db576125db613701565b1a60f81b8282815181106125f1576125f1613701565b60200101906001600160f81b03191690815f1a90535060049290921c916126178161372c565b90506125aa565b5081156126485760405163e22e27eb60e01b815260048101869052602481018590526044016107de565b949350505050565b606082515f0361266e575060408051602081019091525f815261065c565b5f8261269e57600384516002612684919061304c565b61268e9190613741565b612699906004613715565b6126c3565b6003845160046126ae9190613715565b6126b990600261304c565b6126c39190613741565b905060405191507f4142434445464748494a4b4c4d4e4f505152535455565758595a616263646566601f5261067083027f6768696a6b6c6d6e6f707172737475767778797a303132333435363738392b2f18603f526020820181810185865187016020810180515f82525b82841015612781576003840193508351603f8160121c16518753600187019650603f81600c1c16518753600187019650603f8160061c16518753600187019650603f81165187535060018601955061272e565b9052508590506127c2576003865106600181146127a557600281146127b8576127c0565b603d6001840353603d60028403536127c0565b603d60018403535b505b9183525060405292915050565b6127da8383836129ca565b610932576001600160a01b03831661280857604051637e27328960e01b8152600481018290526024016107de565b60405163177e802f60e01b81526001600160a01b0383166004820152602481018290526044016107de565b6001600160a01b03821661285c57604051633250574960e11b81525f60048201526024016107de565b5f61286883835f611658565b90506001600160a01b03811615610932576040516339e3563760e11b81525f60048201526024016107de565b5f8181526001830160205260408120546128d957508154600181810184555f84815260208082209093018490558454848252828601909352604090209190915561065c565b505f61065c565b5f81815260018301602052604081205480156129ba575f61290260018361309b565b85549091505f906129159060019061309b565b9050808214612974575f865f01828154811061293357612933613701565b905f5260205f200154905080875f01848154811061295357612953613701565b5f918252602080832090910192909255918252600188019052604090208390555b855486908061298557612985613760565b600190038181905f5260205f20015f90559055856001015f8681526020019081526020015f205f90556001935050505061065c565b5f91505061065c565b5092915050565b5f6001600160a01b038316158015906126485750826001600160a01b0316846001600160a01b03161480612a035750612a0384846115e6565b806126485750505f908152600460205260409020546001600160a01b03908116911614919050565b6001600160e01b031981168114611172575f5ffd5b5f60208284031215612a50575f5ffd5b81356111cc81612a2b565b5f81518084528060208401602086015e5f602082860101526020601f19601f83011685010191505092915050565b602081525f6111cc6020830184612a5b565b5f60208284031215612aab575f5ffd5b5035919050565b80356001600160a01b0381168114612ac8575f5ffd5b919050565b5f5f60408385031215612ade575f5ffd5b612ae783612ab2565b946020939093013593505050565b5f60208284031215612b05575f5ffd5b6111cc82612ab2565b634e487b7160e01b5f52602160045260245ffd5b8151606082019060028110612b3957612b39612b0e565b8083525064ffffffffff602084015116602083015260ff604084015116604083015292915050565b5f5f5f60608486031215612b73575f5ffd5b612b7c84612ab2565b9250612b8a60208501612ab2565b929592945050506040919091013590565b5f5f83601f840112612bab575f5ffd5b5081356001600160401b03811115612bc1575f5ffd5b602083019150836020828501011115612bd8575f5ffd5b9250929050565b5f5f60208385031215612bf0575f5ffd5b82356001600160401b03811115612c05575f5ffd5b612c1185828601612b9b565b90969095509350505050565b5f5f60408385031215612c2e575f5ffd5b82359150602083013560038110612c43575f5ffd5b809150509250929050565b5f5f5f5f60608587031215612c61575f5ffd5b612c6a85612ab2565b93506020850135925060408501356001600160401b03811115612c8b575f5ffd5b612c9787828801612b9b565b95989497509550505050565b5f5f60408385031215612cb4575f5ffd5b612cbd83612ab2565b915060208301358015158114612c43575f5ffd5b60048110612ce157612ce1612b0e565b9052565b60208152612cf7602082018351612cd1565b5f6020830151612d1260408401826001600160a01b03169052565b5060408301516001600160401b038116606084015250606083015163ffffffff8116608084015250608083015180151560a08401525060a083015180151560c08401525060c083015163ffffffff811660e08401525060e083015163ffffffff81166101008401525061010083015163ffffffff81166101208401525061012083015161014083015261014083015161016080840152612648610180840182612a5b565b634e487b7160e01b5f52604160045260245ffd5b5f5f5f5f60808587031215612ddd575f5ffd5b612de685612ab2565b9350612df460208601612ab2565b92506040850135915060608501356001600160401b03811115612e15575f5ffd5b8501601f81018713612e25575f5ffd5b80356001600160401b03811115612e3e57612e3e612db6565b604051601f8201601f19908116603f011681016001600160401b0381118282101715612e6c57612e6c612db6565b604052818152828201602001891015612e83575f5ffd5b816020840160208301375f6020838301015280935050505092959194509250565b5f5f60408385031215612eb5575f5ffd5b612ebe83612ab2565b9150612ecc60208401612ab2565b90509250929050565b600181811c90821680612ee957607f821691505b602082108103612f0757634e487b7160e01b5f52602260045260245ffd5b50919050565b601f82111561093257805f5260205f20601f840160051c81016020851015612f325750805b601f840160051c820191505b81811015610edd575f8155600101612f3e565b6001600160401b03831115612f6857612f68612db6565b612f7c83612f768354612ed5565b83612f0d565b5f601f841160018114612fad575f8515612f965750838201355b5f19600387901b1c1916600186901b178355610edd565b5f83815260208120601f198716915b82811015612fdc5786850135825560209485019460019092019101612fbc565b5086821015612ff8575f1960f88860031b161c19848701351681555b505060018560011b0183555050505050565b60208152816020820152818360408301375f818301604090810191909152601f909201601f19160101919050565b634e487b7160e01b5f52601160045260245ffd5b8082018082111561065c5761065c613038565b5f63ffffffff821663ffffffff810361307a5761307a613038565b60010192915050565b5f6001820161309457613094613038565b5060010190565b8181038181111561065c5761065c613038565b5f81518060208401855e5f93019283525090919050565b7f7b226e616d65223a224361727465206465204d65757465202d2000000000000081525f6130f6601a8301876130ae565b7f222c226465736372697074696f6e223a224361727465206465206d656d62726581527f206e6f6e207472616e7366657261626c65206465204c61204d657574652e200060208201526b02232ba32b73a32bab9101d160a51b603f820152613161604b8201876130ae565b7f2e222c2261747472696275746573223a5b7b2274726169745f74797065223a2281526e2930b7339116113b30b63ab2911d1160891b602082015290506131ab602f8201866130ae565b90507f227d5d2c22696d616765223a22646174613a696d6167652f7376672b786d6c3b81526618985cd94d8d0b60ca1b60208201526131ed60278201856130ae565b61227d60f01b8152600201979650505050505050565b7f646174613a6170706c69636174696f6e2f6a736f6e3b6261736536342c00000081525f6111cc601d8301846130ae565b81516001600160401b0381111561324d5761324d612db6565b6132618161325b8454612ed5565b84612f0d565b6020601f821160018114613293575f831561327c5750848201515b5f19600385901b1c1916600184901b178455610edd565b5f84815260208120601f198516915b828110156132c257878501518255602094850194600190920191016132a2565b50848210156132df57868401515f19600387901b60f8161c191681555b50505050600190811b01905550565b6020810161065c8284612cd1565b63ffffffff818116838216019081111561065c5761065c613038565b63ffffffff81811683821602908116908181146129c3576129c3613038565b5f60ff821660ff810361307a5761307a613038565b6001600160a01b03858116825284166020820152604081018390526080606082018190525f9061337e90830184612a5b565b9695505050505050565b5f60208284031215613398575f5ffd5b81516111cc81612a2b565b7f3c73766720786d6c6e733d22687474703a2f2f7777772e77332e6f72672f323081527f30302f737667222076696577426f783d223020302035313220353132223e3c676020820152600160fd1b60408201525f61340460418301846130ae565b601f60f91b81527f3c7061746820643d224d32353620323538204c33323520333330204c3335302060018201527f343230204c32393020343730204c32353620343532204c32323220343730204c602182015274189b19101a19181026189c1b90199998102d11179f60591b60418201527f3c7061746820643d224d31383220313138204c323130203836204c323434203160568201527f3132204c32353220313738204c32323220323238204c31373620323036204c3160768201526a1a9c10189b19102d11179f60a91b60968201527f3c7061746820643d224d33333020313138204c333032203836204c323638203160a18201527f3132204c32363020313738204c32393020323238204c33333620323036204c3360c18201526a1a9a10189b19102d11179f60a91b60e18201527f3c7061746820643d224d393620323134204c31333220313832204c313736203260ec8201527f3134204c31383420323932204c31353020333532204c31303620333330204c3861010c820152691a10191b98102d11179f60b11b61012c8201527f3c7061746820643d224d34313620323134204c33383020313832204c333336206101368201527f323134204c33323820323932204c33363220333532204c34303620333330204c6101568201526b1a191c10191b98102d11179f60a11b6101768201527f3c706f6c79676f6e20706f696e74733d223139362c3538203231342c31382032610182820152671998161b1b11179f60c11b6101a28201527f3c706f6c79676f6e20706f696e74733d223331362c3538203239382c313820326101aa820152671c19161b1b11179f60c11b6101ca8201527f3c706f6c79676f6e20706f696e74733d2238322c3138322039362c31343420316101d282015268189816189c1c11179f60b91b6101f28201527f3c706f6c79676f6e20706f696e74733d223433302c313832203431362c3134346101fb8201526a101a181916189c1c11179f60a91b61021b820152691e17b39f1e17b9bb339f60b11b610226820152610230019392505050565b634e487b7160e01b5f52603260045260245ffd5b808202811582820484141761065c5761065c613038565b5f8161373a5761373a613038565b505f190190565b5f8261375b57634e487b7160e01b5f52601260045260245ffd5b500490565b634e487b7160e01b5f52603160045260245ffdfe66696c6c3d226e6f6e6522207374726f6b653d222331363133313122207374726f6b652d77696474683d22313022207374726f6b652d6c696e656a6f696e3d22726f756e6422a264697066735822122041cfd4668f90de510fdc0deeacd373f968ef8a35a3ad3490eec274b71d98168e64736f6c634300081c0033",
  "linkReferences": {},
  "deployedLinkReferences": {},
  "immutableReferences": {
    "11311": [
      {
        "length": 32,
        "start": 1312
      },
      {
        "length": 32,
        "start": 4591
      },
      {
        "length": 32,
        "start": 9296
      }
    ]
  },
  "inputSourceName": "project/contracts/Meute.sol",
  "buildInfoId": "solc-0_8_28-ccd3d0fd4fa71b9df384bbf5645cd3f3a36f3174"
}